{
  "address": "0xe7f1725E7734CE288F8367e1Bb143E90bb3F0512",
  "abi": [
    {
      "inputs": [],
      "stateMutability": "nonpayable",
      "type": "constructor"
    },
    {
      "anonymous": false,
      "inputs": [
        {
          "indexed": true,
          "internalType": "address",
          "name": "owner",
          "type": "address"
        },
        {
          "indexed": true,
          "internalType": "address",
          "name": "approved",
          "type": "address"
        },
        {
          "indexed": true,
          "internalType": "uint256",
          "name": "tokenId",
          "type": "uint256"
        }
      ],
      "name": "Approval",
      "type": "event"
    },
    {
      "anonymous": false,
      "inputs": [
        {
          "indexed": true,
          "internalType": "address",
          "name": "owner",
          "type": "address"
        },
        {
          "indexed": true,
          "internalType": "address",
          "name": "operator",
          "type": "address"
        },
        {
          "indexed": false,
          "internalType": "bool",
          "name": "approved",
          "type": "bool"
        }
      ],
      "name": "ApprovalForAll",
      "type": "event"
    },
    {
      "anonymous": false,
      "inputs": [
        {
          "indexed": true,
          "internalType": "uint256",
          "name": "tokenId",
          "type": "uint256"
        }
      ],
      "name": "SampleNftMinted",
      "type": "event"
    },
    {
      "anonymous": false,
      "inputs": [
        {
          "indexed": true,
          "internalType": "address",
          "name": "from",
          "type": "address"
        },
        {
          "indexed": true,
          "internalType": "address",
          "name": "to",
          "type": "address"
        },
        {
          "indexed": true,
          "internalType": "uint256",
          "name": "tokenId",
          "type": "uint256"
        }
      ],
      "name": "Transfer",
      "type": "event"
    },
    {
      "inputs": [
        {
          "internalType": "address",
          "name": "to",
          "type": "address"
        },
        {
          "internalType": "uint256",
          "name": "tokenId",
          "type": "uint256"
        }
      ],
      "name": "approve",
      "outputs": [],
      "stateMutability": "nonpayable",
      "type": "function"
    },
    {
      "inputs": [
        {
          "internalType": "address",
          "name": "owner",
          "type": "address"
        }
      ],
      "name": "balanceOf",
      "outputs": [
        {
          "internalType": "uint256",
          "name": "",
          "type": "uint256"
        }
      ],
      "stateMutability": "view",
      "type": "function"
    },
    {
      "inputs": [
        {
          "internalType": "uint256",
          "name": "tokenId",
          "type": "uint256"
        }
      ],
      "name": "getApproved",
      "outputs": [
        {
          "internalType": "address",
          "name": "",
          "type": "address"
        }
      ],
      "stateMutability": "view",
      "type": "function"
    },
    {
      "inputs": [],
      "name": "getTokenId",
      "outputs": [
        {
          "internalType": "uint256",
          "name": "",
          "type": "uint256"
        }
      ],
      "stateMutability": "view",
      "type": "function"
    },
    {
      "inputs": [],
      "name": "getTokenUri",
      "outputs": [
        {
          "internalType": "string",
          "name": "",
          "type": "string"
        }
      ],
      "stateMutability": "view",
      "type": "function"
    },
    {
      "inputs": [
        {
          "internalType": "address",
          "name": "owner",
          "type": "address"
        },
        {
          "internalType": "address",
          "name": "operator",
          "type": "address"
        }
      ],
      "name": "isApprovedForAll",
      "outputs": [
        {
          "internalType": "bool",
          "name": "",
          "type": "bool"
        }
      ],
      "stateMutability": "view",
      "type": "function"
    },
    {
      "inputs": [],
      "name": "mintNft",
      "outputs": [],
      "stateMutability": "nonpayable",
      "type": "function"
    },
    {
      "inputs": [],
      "name": "name",
      "outputs": [
        {
          "internalType": "string",
          "name": "",
          "type": "string"
        }
      ],
      "stateMutability": "view",
      "type": "function"
    },
    {
      "inputs": [
        {
          "internalType": "uint256",
          "name": "tokenId",
          "type": "uint256"
        }
      ],
      "name": "ownerOf",
      "outputs": [
        {
          "internalType": "address",
          "name": "",
          "type": "address"
        }
      ],
      "stateMutability": "view",
      "type": "function"
    },
    {
      "inputs": [
        {
          "internalType": "address",
          "name": "from",
          "type": "address"
        },
        {
          "internalType": "address",
          "name": "to",
          "type": "address"
        },
        {
          "internalType": "uint256",
          "name": "tokenId",
          "type": "uint256"
        }
      ],
      "name": "safeTransferFrom",
      "outputs": [],
      "stateMutability": "nonpayable",
      "type": "function"
    },
    {
      "inputs": [
        {
          "internalType": "address",
          "name": "from",
          "type": "address"
        },
        {
          "internalType": "address",
          "name": "to",
          "type": "address"
        },
        {
          "internalType": "uint256",
          "name": "tokenId",
          "type": "uint256"
        },
        {
          "internalType": "bytes",
          "name": "_data",
          "type": "bytes"
        }
      ],
      "name": "safeTransferFrom",
      "outputs": [],
      "stateMutability": "nonpayable",
      "type": "function"
    },
    {
      "inputs": [
        {
          "internalType": "address",
          "name": "operator",
          "type": "address"
        },
        {
          "internalType": "bool",
          "name": "approved",
          "type": "bool"
        }
      ],
      "name": "setApprovalForAll",
      "outputs": [],
      "stateMutability": "nonpayable",
      "type": "function"
    },
    {
      "inputs": [
        {
          "internalType": "bytes4",
          "name": "interfaceId",
          "type": "bytes4"
        }
      ],
      "name": "supportsInterface",
      "outputs": [
        {
          "internalType": "bool",
          "name": "",
          "type": "bool"
        }
      ],
      "stateMutability": "view",
      "type": "function"
    },
    {
      "inputs": [],
      "name": "symbol",
      "outputs": [
        {
          "internalType": "string",
          "name": "",
          "type": "string"
        }
      ],
      "stateMutability": "view",
      "type": "function"
    },
    {
      "inputs": [
        {
          "internalType": "uint256",
          "name": "tokenId",
          "type": "uint256"
        }
      ],
      "name": "tokenURI",
      "outputs": [
        {
          "internalType": "string",
          "name": "",
          "type": "string"
        }
      ],
      "stateMutability": "view",
      "type": "function"
    },
    {
      "inputs": [
        {
          "internalType": "address",
          "name": "from",
          "type": "address"
        },
        {
          "internalType": "address",
          "name": "to",
          "type": "address"
        },
        {
          "internalType": "uint256",
          "name": "tokenId",
          "type": "uint256"
        }
      ],
      "name": "transferFrom",
      "outputs": [],
      "stateMutability": "nonpayable",
      "type": "function"
    }
  ],
  "transactionHash": "0x81b7e9bca605e2fe9d1c1ec0994efd5bde65433bd7e23a2df94383933ce10751",
  "args": [],
  "numDeployments": 1,
  "solcInputHash": "ad8c211d3d80a072e1349bd174552431",
  "bytecode": "0x60806040523480156200001157600080fd5b506040518060400160405280600981526020017f53616d706c654e667400000000000000000000000000000000000000000000008152506040518060400160405280600381526020017f534e540000000000000000000000000000000000000000000000000000000000815250816000908051906020019062000096929190620000f2565b508060019080519060200190620000af929190620000f2565b50505060405180606001604052806035815260200162002a736035913960069080519060200190620000e3929190620000f2565b50600060078190555062000207565b8280546200010090620001a2565b90600052602060002090601f01602090048101928262000124576000855562000170565b82601f106200013f57805160ff191683800117855562000170565b8280016001018555821562000170579182015b828111156200016f57825182559160200191906001019062000152565b5b5090506200017f919062000183565b5090565b5b808211156200019e57600081600090555060010162000184565b5090565b60006002820490506001821680620001bb57607f821691505b60208210811415620001d257620001d1620001d8565b5b50919050565b7f4e487b7100000000000000000000000000000000000000000000000000000000600052602260045260246000fd5b61285c80620002176000396000f3fe608060405234801561001057600080fd5b50600436106101005760003560e01c806370a0823111610097578063c2229fea11610066578063c2229fea146102ab578063c395c8af146102b5578063c87b56dd146102d3578063e985e9c51461030357610100565b806370a082311461022557806395d89b4114610255578063a22cb46514610273578063b88d4fde1461028f57610100565b8063095ea7b3116100d3578063095ea7b3146101a157806323b872dd146101bd57806342842e0e146101d95780636352211e146101f557610100565b8063010a38f51461010557806301ffc9a71461012357806306fdde0314610153578063081812fc14610171575b600080fd5b61010d610333565b60405161011a919061201b565b60405180910390f35b61013d60048036038101906101389190611a5e565b61033d565b60405161014a9190611e1e565b60405180910390f35b61015b61041f565b6040516101689190611e39565b60405180910390f35b61018b60048036038101906101869190611ab0565b6104b1565b6040516101989190611db7565b60405180910390f35b6101bb60048036038101906101b69190611a22565b610536565b005b6101d760048036038101906101d2919061191c565b61064e565b005b6101f360048036038101906101ee919061191c565b6106ae565b005b61020f600480360381019061020a9190611ab0565b6106ce565b60405161021c9190611db7565b60405180910390f35b61023f600480360381019061023a91906118b7565b610780565b60405161024c919061201b565b60405180910390f35b61025d610838565b60405161026a9190611e39565b60405180910390f35b61028d600480360381019061028891906119e6565b6108ca565b005b6102a960048036038101906102a4919061196b565b6108e0565b005b6102b3610942565b005b6102bd610999565b6040516102ca9190611e39565b60405180910390f35b6102ed60048036038101906102e89190611ab0565b610a2b565b6040516102fa9190611e39565b60405180910390f35b61031d600480360381019061031891906118e0565b610ad2565b60405161032a9190611e1e565b60405180910390f35b6000600754905090565b60007f80ac58cd000000000000000000000000000000000000000000000000000000007bffffffffffffffffffffffffffffffffffffffffffffffffffffffff1916827bffffffffffffffffffffffffffffffffffffffffffffffffffffffff1916148061040857507f5b5e139f000000000000000000000000000000000000000000000000000000007bffffffffffffffffffffffffffffffffffffffffffffffffffffffff1916827bffffffffffffffffffffffffffffffffffffffffffffffffffffffff1916145b80610418575061041782610b66565b5b9050919050565b60606000805461042e90612240565b80601f016020809104026020016040519081016040528092919081815260200182805461045a90612240565b80156104a75780601f1061047c576101008083540402835291602001916104a7565b820191906000526020600020905b81548152906001019060200180831161048a57829003601f168201915b5050505050905090565b60006104bc82610bd0565b6104fb576040517f08c379a00000000000000000000000000000000000000000000000000000000081526004016104f290611f9b565b60405180910390fd5b6004600083815260200190815260200160002060009054906101000a900473ffffffffffffffffffffffffffffffffffffffff169050919050565b6000610541826106ce565b90508073ffffffffffffffffffffffffffffffffffffffff168373ffffffffffffffffffffffffffffffffffffffff1614156105b2576040517f08c379a00000000000000000000000000000000000000000000000000000000081526004016105a990611fdb565b60405180910390fd5b8073ffffffffffffffffffffffffffffffffffffffff166105d1610c3c565b73ffffffffffffffffffffffffffffffffffffffff16148061060057506105ff816105fa610c3c565b610ad2565b5b61063f576040517f08c379a000000000000000000000000000000000000000000000000000000000815260040161063690611f1b565b60405180910390fd5b6106498383610c44565b505050565b61065f610659610c3c565b82610cfd565b61069e576040517f08c379a000000000000000000000000000000000000000000000000000000000815260040161069590611ffb565b60405180910390fd5b6106a9838383610ddb565b505050565b6106c9838383604051806020016040528060008152506108e0565b505050565b6000806002600084815260200190815260200160002060009054906101000a900473ffffffffffffffffffffffffffffffffffffffff169050600073ffffffffffffffffffffffffffffffffffffffff168173ffffffffffffffffffffffffffffffffffffffff161415610777576040517f08c379a000000000000000000000000000000000000000000000000000000000815260040161076e90611f5b565b60405180910390fd5b80915050919050565b60008073ffffffffffffffffffffffffffffffffffffffff168273ffffffffffffffffffffffffffffffffffffffff1614156107f1576040517f08c379a00000000000000000000000000000000000000000000000000000000081526004016107e890611f3b565b60405180910390fd5b600360008373ffffffffffffffffffffffffffffffffffffffff1673ffffffffffffffffffffffffffffffffffffffff168152602001908152602001600020549050919050565b60606001805461084790612240565b80601f016020809104026020016040519081016040528092919081815260200182805461087390612240565b80156108c05780601f10610895576101008083540402835291602001916108c0565b820191906000526020600020905b8154815290600101906020018083116108a357829003601f168201915b5050505050905090565b6108dc6108d5610c3c565b8383611042565b5050565b6108f16108eb610c3c565b83610cfd565b610930576040517f08c379a000000000000000000000000000000000000000000000000000000000815260040161092790611ffb565b60405180910390fd5b61093c848484846111af565b50505050565b61094e3360075461120b565b6007547f6c1273cad7537d1d96625d2318ea9338ebd81887448529ad07804f80edfe034060405160405180910390a260016007600082825461099091906120cf565b92505081905550565b6060600680546109a890612240565b80601f01602080910402602001604051908101604052809291908181526020018280546109d490612240565b8015610a215780601f106109f657610100808354040283529160200191610a21565b820191906000526020600020905b815481529060010190602001808311610a0457829003601f168201915b5050505050905090565b6060610a3682610bd0565b610a75576040517f08c379a0000000000000000000000000000000000000000000000000000000008152600401610a6c90611fbb565b60405180910390fd5b6000610a7f611229565b90506000815111610a9f5760405180602001604052806000815250610aca565b80610aa984611240565b604051602001610aba929190611d93565b6040516020818303038152906040525b915050919050565b6000600560008473ffffffffffffffffffffffffffffffffffffffff1673ffffffffffffffffffffffffffffffffffffffff16815260200190815260200160002060008373ffffffffffffffffffffffffffffffffffffffff1673ffffffffffffffffffffffffffffffffffffffff16815260200190815260200160002060009054906101000a900460ff16905092915050565b60007f01ffc9a7000000000000000000000000000000000000000000000000000000007bffffffffffffffffffffffffffffffffffffffffffffffffffffffff1916827bffffffffffffffffffffffffffffffffffffffffffffffffffffffff1916149050919050565b60008073ffffffffffffffffffffffffffffffffffffffff166002600084815260200190815260200160002060009054906101000a900473ffffffffffffffffffffffffffffffffffffffff1673ffffffffffffffffffffffffffffffffffffffff1614159050919050565b600033905090565b816004600083815260200190815260200160002060006101000a81548173ffffffffffffffffffffffffffffffffffffffff021916908373ffffffffffffffffffffffffffffffffffffffff160217905550808273ffffffffffffffffffffffffffffffffffffffff16610cb7836106ce565b73ffffffffffffffffffffffffffffffffffffffff167f8c5be1e5ebec7d5bd14f71427d1e84f3dd0314c0f7b2291e5b200ac8c7c3b92560405160405180910390a45050565b6000610d0882610bd0565b610d47576040517f08c379a0000000000000000000000000000000000000000000000000000000008152600401610d3e90611efb565b60405180910390fd5b6000610d52836106ce565b90508073ffffffffffffffffffffffffffffffffffffffff168473ffffffffffffffffffffffffffffffffffffffff161480610d945750610d938185610ad2565b5b80610dd257508373ffffffffffffffffffffffffffffffffffffffff16610dba846104b1565b73ffffffffffffffffffffffffffffffffffffffff16145b91505092915050565b8273ffffffffffffffffffffffffffffffffffffffff16610dfb826106ce565b73ffffffffffffffffffffffffffffffffffffffff1614610e51576040517f08c379a0000000000000000000000000000000000000000000000000000000008152600401610e4890611e7b565b60405180910390fd5b600073ffffffffffffffffffffffffffffffffffffffff168273ffffffffffffffffffffffffffffffffffffffff161415610ec1576040517f08c379a0000000000000000000000000000000000000000000000000000000008152600401610eb890611ebb565b60405180910390fd5b610ecc8383836113ed565b610ed7600082610c44565b6001600360008573ffffffffffffffffffffffffffffffffffffffff1673ffffffffffffffffffffffffffffffffffffffff1681526020019081526020016000206000828254610f279190612156565b925050819055506001600360008473ffffffffffffffffffffffffffffffffffffffff1673ffffffffffffffffffffffffffffffffffffffff1681526020019081526020016000206000828254610f7e91906120cf565b92505081905550816002600083815260200190815260200160002060006101000a81548173ffffffffffffffffffffffffffffffffffffffff021916908373ffffffffffffffffffffffffffffffffffffffff160217905550808273ffffffffffffffffffffffffffffffffffffffff168473ffffffffffffffffffffffffffffffffffffffff167fddf252ad1be2c89b69c2b068fc378daa952ba7f163c4a11628f55a4df523b3ef60405160405180910390a461103d8383836113f2565b505050565b8173ffffffffffffffffffffffffffffffffffffffff168373ffffffffffffffffffffffffffffffffffffffff1614156110b1576040517f08c379a00000000000000000000000000000000000000000000000000000000081526004016110a890611edb565b60405180910390fd5b80600560008573ffffffffffffffffffffffffffffffffffffffff1673ffffffffffffffffffffffffffffffffffffffff16815260200190815260200160002060008473ffffffffffffffffffffffffffffffffffffffff1673ffffffffffffffffffffffffffffffffffffffff16815260200190815260200160002060006101000a81548160ff0219169083151502179055508173ffffffffffffffffffffffffffffffffffffffff168373ffffffffffffffffffffffffffffffffffffffff167f17307eab39ab6107e8899845ad3d59bd9653f200f220920489ca2b5937696c31836040516111a29190611e1e565b60405180910390a3505050565b6111ba848484610ddb565b6111c6848484846113f7565b611205576040517f08c379a00000000000000000000000000000000000000000000000000000000081526004016111fc90611e5b565b60405180910390fd5b50505050565b61122582826040518060200160405280600081525061158e565b5050565b606060405180602001604052806000815250905090565b60606000821415611288576040518060400160405280600181526020017f300000000000000000000000000000000000000000000000000000000000000081525090506113e8565b600082905060005b600082146112ba5780806112a3906122a3565b915050600a826112b39190612125565b9150611290565b60008167ffffffffffffffff8111156112fc577f4e487b7100000000000000000000000000000000000000000000000000000000600052604160045260246000fd5b6040519080825280601f01601f19166020018201604052801561132e5781602001600182028036833780820191505090505b5090505b600085146113e1576001826113479190612156565b9150600a8561135691906122ec565b603061136291906120cf565b60f81b81838151811061139e577f4e487b7100000000000000000000000000000000000000000000000000000000600052603260045260246000fd5b60200101907effffffffffffffffffffffffffffffffffffffffffffffffffffffffffffff1916908160001a905350600a856113da9190612125565b9450611332565b8093505050505b919050565b505050565b505050565b60006114188473ffffffffffffffffffffffffffffffffffffffff166115e9565b15611581578373ffffffffffffffffffffffffffffffffffffffff1663150b7a02611441610c3c565b8786866040518563ffffffff1660e01b81526004016114639493929190611dd2565b602060405180830381600087803b15801561147d57600080fd5b505af19250505080156114ae57506040513d601f19601f820116820180604052508101906114ab9190611a87565b60015b611531573d80600081146114de576040519150601f19603f3d011682016040523d82523d6000602084013e6114e3565b606091505b50600081511415611529576040517f08c379a000000000000000000000000000000000000000000000000000000000815260040161152090611e5b565b60405180910390fd5b805181602001fd5b63150b7a0260e01b7bffffffffffffffffffffffffffffffffffffffffffffffffffffffff1916817bffffffffffffffffffffffffffffffffffffffffffffffffffffffff191614915050611586565b600190505b949350505050565b611598838361160c565b6115a560008484846113f7565b6115e4576040517f08c379a00000000000000000000000000000000000000000000000000000000081526004016115db90611e5b565b60405180910390fd5b505050565b6000808273ffffffffffffffffffffffffffffffffffffffff163b119050919050565b600073ffffffffffffffffffffffffffffffffffffffff168273ffffffffffffffffffffffffffffffffffffffff16141561167c576040517f08c379a000000000000000000000000000000000000000000000000000000000815260040161167390611f7b565b60405180910390fd5b61168581610bd0565b156116c5576040517f08c379a00000000000000000000000000000000000000000000000000000000081526004016116bc90611e9b565b60405180910390fd5b6116d1600083836113ed565b6001600360008473ffffffffffffffffffffffffffffffffffffffff1673ffffffffffffffffffffffffffffffffffffffff168152602001908152602001600020600082825461172191906120cf565b92505081905550816002600083815260200190815260200160002060006101000a81548173ffffffffffffffffffffffffffffffffffffffff021916908373ffffffffffffffffffffffffffffffffffffffff160217905550808273ffffffffffffffffffffffffffffffffffffffff16600073ffffffffffffffffffffffffffffffffffffffff167fddf252ad1be2c89b69c2b068fc378daa952ba7f163c4a11628f55a4df523b3ef60405160405180910390a46117e2600083836113f2565b5050565b60006117f96117f48461205b565b612036565b90508281526020810184848401111561181157600080fd5b61181c8482856121fe565b509392505050565b600081359050611833816127ca565b92915050565b600081359050611848816127e1565b92915050565b60008135905061185d816127f8565b92915050565b600081519050611872816127f8565b92915050565b600082601f83011261188957600080fd5b81356118998482602086016117e6565b91505092915050565b6000813590506118b18161280f565b92915050565b6000602082840312156118c957600080fd5b60006118d784828501611824565b91505092915050565b600080604083850312156118f357600080fd5b600061190185828601611824565b925050602061191285828601611824565b9150509250929050565b60008060006060848603121561193157600080fd5b600061193f86828701611824565b935050602061195086828701611824565b9250506040611961868287016118a2565b9150509250925092565b6000806000806080858703121561198157600080fd5b600061198f87828801611824565b94505060206119a087828801611824565b93505060406119b1878288016118a2565b925050606085013567ffffffffffffffff8111156119ce57600080fd5b6119da87828801611878565b91505092959194509250565b600080604083850312156119f957600080fd5b6000611a0785828601611824565b9250506020611a1885828601611839565b9150509250929050565b60008060408385031215611a3557600080fd5b6000611a4385828601611824565b9250506020611a54858286016118a2565b9150509250929050565b600060208284031215611a7057600080fd5b6000611a7e8482850161184e565b91505092915050565b600060208284031215611a9957600080fd5b6000611aa784828501611863565b91505092915050565b600060208284031215611ac257600080fd5b6000611ad0848285016118a2565b91505092915050565b611ae28161218a565b82525050565b611af18161219c565b82525050565b6000611b028261208c565b611b0c81856120a2565b9350611b1c81856020860161220d565b611b25816123d9565b840191505092915050565b6000611b3b82612097565b611b4581856120b3565b9350611b5581856020860161220d565b611b5e816123d9565b840191505092915050565b6000611b7482612097565b611b7e81856120c4565b9350611b8e81856020860161220d565b80840191505092915050565b6000611ba76032836120b3565b9150611bb2826123ea565b604082019050919050565b6000611bca6025836120b3565b9150611bd582612439565b604082019050919050565b6000611bed601c836120b3565b9150611bf882612488565b602082019050919050565b6000611c106024836120b3565b9150611c1b826124b1565b604082019050919050565b6000611c336019836120b3565b9150611c3e82612500565b602082019050919050565b6000611c56602c836120b3565b9150611c6182612529565b604082019050919050565b6000611c796038836120b3565b9150611c8482612578565b604082019050919050565b6000611c9c602a836120b3565b9150611ca7826125c7565b604082019050919050565b6000611cbf6029836120b3565b9150611cca82612616565b604082019050919050565b6000611ce26020836120b3565b9150611ced82612665565b602082019050919050565b6000611d05602c836120b3565b9150611d108261268e565b604082019050919050565b6000611d28602f836120b3565b9150611d33826126dd565b604082019050919050565b6000611d4b6021836120b3565b9150611d568261272c565b604082019050919050565b6000611d6e6031836120b3565b9150611d798261277b565b604082019050919050565b611d8d816121f4565b82525050565b6000611d9f8285611b69565b9150611dab8284611b69565b91508190509392505050565b6000602082019050611dcc6000830184611ad9565b92915050565b6000608082019050611de76000830187611ad9565b611df46020830186611ad9565b611e016040830185611d84565b8181036060830152611e138184611af7565b905095945050505050565b6000602082019050611e336000830184611ae8565b92915050565b60006020820190508181036000830152611e538184611b30565b905092915050565b60006020820190508181036000830152611e7481611b9a565b9050919050565b60006020820190508181036000830152611e9481611bbd565b9050919050565b60006020820190508181036000830152611eb481611be0565b9050919050565b60006020820190508181036000830152611ed481611c03565b9050919050565b60006020820190508181036000830152611ef481611c26565b9050919050565b60006020820190508181036000830152611f1481611c49565b9050919050565b60006020820190508181036000830152611f3481611c6c565b9050919050565b60006020820190508181036000830152611f5481611c8f565b9050919050565b60006020820190508181036000830152611f7481611cb2565b9050919050565b60006020820190508181036000830152611f9481611cd5565b9050919050565b60006020820190508181036000830152611fb481611cf8565b9050919050565b60006020820190508181036000830152611fd481611d1b565b9050919050565b60006020820190508181036000830152611ff481611d3e565b9050919050565b6000602082019050818103600083015261201481611d61565b9050919050565b60006020820190506120306000830184611d84565b92915050565b6000612040612051565b905061204c8282612272565b919050565b6000604051905090565b600067ffffffffffffffff821115612076576120756123aa565b5b61207f826123d9565b9050602081019050919050565b600081519050919050565b600081519050919050565b600082825260208201905092915050565b600082825260208201905092915050565b600081905092915050565b60006120da826121f4565b91506120e5836121f4565b9250827fffffffffffffffffffffffffffffffffffffffffffffffffffffffffffffffff0382111561211a5761211961231d565b5b828201905092915050565b6000612130826121f4565b915061213b836121f4565b92508261214b5761214a61234c565b5b828204905092915050565b6000612161826121f4565b915061216c836121f4565b92508282101561217f5761217e61231d565b5b828203905092915050565b6000612195826121d4565b9050919050565b60008115159050919050565b60007fffffffff0000000000000000000000000000000000000000000000000000000082169050919050565b600073ffffffffffffffffffffffffffffffffffffffff82169050919050565b6000819050919050565b82818337600083830152505050565b60005b8381101561222b578082015181840152602081019050612210565b8381111561223a576000848401525b50505050565b6000600282049050600182168061225857607f821691505b6020821081141561226c5761226b61237b565b5b50919050565b61227b826123d9565b810181811067ffffffffffffffff8211171561229a576122996123aa565b5b80604052505050565b60006122ae826121f4565b91507fffffffffffffffffffffffffffffffffffffffffffffffffffffffffffffffff8214156122e1576122e061231d565b5b600182019050919050565b60006122f7826121f4565b9150612302836121f4565b9250826123125761231161234c565b5b828206905092915050565b7f4e487b7100000000000000000000000000000000000000000000000000000000600052601160045260246000fd5b7f4e487b7100000000000000000000000000000000000000000000000000000000600052601260045260246000fd5b7f4e487b7100000000000000000000000000000000000000000000000000000000600052602260045260246000fd5b7f4e487b7100000000000000000000000000000000000000000000000000000000600052604160045260246000fd5b6000601f19601f8301169050919050565b7f4552433732313a207472616e7366657220746f206e6f6e20455243373231526560008201527f63656976657220696d706c656d656e7465720000000000000000000000000000602082015250565b7f4552433732313a207472616e736665722066726f6d20696e636f72726563742060008201527f6f776e6572000000000000000000000000000000000000000000000000000000602082015250565b7f4552433732313a20746f6b656e20616c7265616479206d696e74656400000000600082015250565b7f4552433732313a207472616e7366657220746f20746865207a65726f2061646460008201527f7265737300000000000000000000000000000000000000000000000000000000602082015250565b7f4552433732313a20617070726f766520746f2063616c6c657200000000000000600082015250565b7f4552433732313a206f70657261746f7220717565727920666f72206e6f6e657860008201527f697374656e7420746f6b656e0000000000000000000000000000000000000000602082015250565b7f4552433732313a20617070726f76652063616c6c6572206973206e6f74206f7760008201527f6e6572206e6f7220617070726f76656420666f7220616c6c0000000000000000602082015250565b7f4552433732313a2062616c616e636520717565727920666f7220746865207a6560008201527f726f206164647265737300000000000000000000000000000000000000000000602082015250565b7f4552433732313a206f776e657220717565727920666f72206e6f6e657869737460008201527f656e7420746f6b656e0000000000000000000000000000000000000000000000602082015250565b7f4552433732313a206d696e7420746f20746865207a65726f2061646472657373600082015250565b7f4552433732313a20617070726f76656420717565727920666f72206e6f6e657860008201527f697374656e7420746f6b656e0000000000000000000000000000000000000000602082015250565b7f4552433732314d657461646174613a2055524920717565727920666f72206e6f60008201527f6e6578697374656e7420746f6b656e0000000000000000000000000000000000602082015250565b7f4552433732313a20617070726f76616c20746f2063757272656e74206f776e6560008201527f7200000000000000000000000000000000000000000000000000000000000000602082015250565b7f4552433732313a207472616e736665722063616c6c6572206973206e6f74206f60008201527f776e6572206e6f7220617070726f766564000000000000000000000000000000602082015250565b6127d38161218a565b81146127de57600080fd5b50565b6127ea8161219c565b81146127f557600080fd5b50565b612801816121a8565b811461280c57600080fd5b50565b612818816121f4565b811461282357600080fd5b5056fea2646970667358221220f72e4e424e30756e8d08eb8c3fc168be965cc4e31dd8a463463cbe4f9055b67164736f6c63430008040033697066733a2f2f516d64774a323376567474726f31744c3167616974516b367967573864684e5961774d5574667650504231774174",
  "devdoc": {
    "kind": "dev",
    "methods": {
      "approve(address,uint256)": {
        "details": "See {IERC721-approve}."
      },
      "balanceOf(address)": {
        "details": "See {IERC721-balanceOf}."
      },
      "getApproved(uint256)": {
        "details": "See {IERC721-getApproved}."
      },
      "isApprovedForAll(address,address)": {
        "details": "See {IERC721-isApprovedForAll}."
      },
      "name()": {
        "details": "See {IERC721Metadata-name}."
      },
      "ownerOf(uint256)": {
        "details": "See {IERC721-ownerOf}."
      },
      "safeTransferFrom(address,address,uint256)": {
        "details": "See {IERC721-safeTransferFrom}."
      },
      "safeTransferFrom(address,address,uint256,bytes)": {
        "details": "See {IERC721-safeTransferFrom}."
      },
      "setApprovalForAll(address,bool)": {
        "details": "See {IERC721-setApprovalForAll}."
      },
      "supportsInterface(bytes4)": {
        "details": "See {IERC165-supportsInterface}."
      },
      "symbol()": {
        "details": "See {IERC721Metadata-symbol}."
      },
      "tokenURI(uint256)": {
        "details": "See {IERC721Metadata-tokenURI}."
      },
      "transferFrom(address,address,uint256)": {
        "details": "See {IERC721-transferFrom}."
      }
    },
    "version": 1
  },
  "userdoc": {
    "kind": "user",
    "methods": {},
    "version": 1
  },
  "storageLayout": {
    "storage": [
      {
        "astId": 25,
        "contract": "contracts/test/SampleNft.sol:SampleNft",
        "label": "_name",
        "offset": 0,
        "slot": "0",
        "type": "t_string_storage"
      },
      {
        "astId": 27,
        "contract": "contracts/test/SampleNft.sol:SampleNft",
        "label": "_symbol",
        "offset": 0,
        "slot": "1",
        "type": "t_string_storage"
      },
      {
        "astId": 31,
        "contract": "contracts/test/SampleNft.sol:SampleNft",
        "label": "_owners",
        "offset": 0,
        "slot": "2",
        "type": "t_mapping(t_uint256,t_address)"
      },
      {
        "astId": 35,
        "contract": "contracts/test/SampleNft.sol:SampleNft",
        "label": "_balances",
        "offset": 0,
        "slot": "3",
        "type": "t_mapping(t_address,t_uint256)"
      },
      {
        "astId": 39,
        "contract": "contracts/test/SampleNft.sol:SampleNft",
        "label": "_tokenApprovals",
        "offset": 0,
        "slot": "4",
        "type": "t_mapping(t_uint256,t_address)"
      },
      {
        "astId": 45,
        "contract": "contracts/test/SampleNft.sol:SampleNft",
        "label": "_operatorApprovals",
        "offset": 0,
        "slot": "5",
        "type": "t_mapping(t_address,t_mapping(t_address,t_bool))"
      },
      {
        "astId": 2041,
        "contract": "contracts/test/SampleNft.sol:SampleNft",
        "label": "s_tokenUri",
        "offset": 0,
        "slot": "6",
        "type": "t_string_storage"
      },
      {
        "astId": 2043,
        "contract": "contracts/test/SampleNft.sol:SampleNft",
        "label": "s_tokenId",
        "offset": 0,
        "slot": "7",
        "type": "t_uint256"
      }
    ],
    "types": {
      "t_address": {
        "encoding": "inplace",
        "label": "address",
        "numberOfBytes": "20"
      },
      "t_bool": {
        "encoding": "inplace",
        "label": "bool",
        "numberOfBytes": "1"
      },
      "t_mapping(t_address,t_bool)": {
        "encoding": "mapping",
        "key": "t_address",
        "label": "mapping(address => bool)",
        "numberOfBytes": "32",
        "value": "t_bool"
      },
      "t_mapping(t_address,t_mapping(t_address,t_bool))": {
        "encoding": "mapping",
        "key": "t_address",
        "label": "mapping(address => mapping(address => bool))",
        "numberOfBytes": "32",
        "value": "t_mapping(t_address,t_bool)"
      },
      "t_mapping(t_address,t_uint256)": {
        "encoding": "mapping",
        "key": "t_address",
        "label": "mapping(address => uint256)",
        "numberOfBytes": "32",
        "value": "t_uint256"
      },
      "t_mapping(t_uint256,t_address)": {
        "encoding": "mapping",
        "key": "t_uint256",
        "label": "mapping(uint256 => address)",
        "numberOfBytes": "32",
        "value": "t_address"
      },
      "t_string_storage": {
        "encoding": "bytes",
        "label": "string",
        "numberOfBytes": "32"
      },
      "t_uint256": {
        "encoding": "inplace",
        "label": "uint256",
        "numberOfBytes": "32"
      }
    }
  }
}